:100000000C949A000C94BB000C94BB000C94BB00A5
:100010000C94BB000C94BB000C94BB000C94BB0074
:100020000C94BB000C94BB000C94BB000C94BB0064
:100030000C94BB000C94BB000C94BB000C94BB0054
:100040000C94BB000C94BB000C94BB000C94BB0044
:100050000C94BB000C94BB000C94BB000C94BB0034
:100060000C94BB000C9452030C9481030C94BB00C1
:100070000C94BB000C94BB000C94BB000C94BB0014
:100080000C94BB000C94BB000C94BB000C94BB0004
:100090000C94BB000C94BB000C94BB000C94BB00F4
:1000A0000C94BB000C94BB000C94BB000C94BB00E4
:1000B0000C94BB000C94BB000C94BB000C94BB00D4
:1000C0000C94BB000C94BB000C94BB000C94BB00C4
:1000D0000C94BB000C94BB000C94BB000C94BB00B4
:1000E0000C94BB000C94BB000C94BB000C94BB00A4
:1000F0000C94BB000C94BB000C94BB000C94BD0092
:100100000C94BB000C94BB000C94BB000C94BB0083
:100110000C94BB000C94BB000C94BB000C94BB0073
:100120000C94BB000C94BB000C94BB000C94BB0063
:100130000C94BB0011241FBECFEFD1E8DEBFCDBFB2
:1001400000E00CBF23E0A6E0B2E001C01D92A831A0
:10015000B207E1F712E0A0E0B2E0ECE8FBE000E07B
:100160000BBF02C007900D92A630B107D9F70E94CD
:10017000B7030C94C4050C9400001F920F920FB6A5
:100180000F9211240BB60F922F933F934F935F93CF
:100190006F937F938F939F93AF93BF93EF93FF934F
:1001A00045E060E28EE20E944101813009F042C0E8
:1001B00063E082E00E94350169E182E00E9435013E
:1001C0008AE28A95F1F700C08091390182608093BC
:1001D0003901809139018D7F809339016091090245
:1001E00070910A02809107020E94600120E045E0C0
:1001F00060E28EE20E944F01A29A8BB180588BB9C7
:1002000045E060EE82E00E94410180930602109278
:100210000D0280910602882331F080910B028F5FDE
:1002200080930B020BC080910C028F5F80930C02B5
:10023000A29804C066E182E00E943501FF91EF912F
:10024000BF91AF919F918F917F916F915F914F91EE
:100250003F912F910F900BBE0F900FBE0F901F90EC
:1002600018955E98569A08950895E82FF0E0E05C9E
:10027000FE4F60830895E82FF0E0E05CFE4F808140
:100280000895E82FF0E0E05CFE4F80816823862F20
:1002900090E002C0959587954A95E2F70895E82F7A
:1002A000F0E0E05CFE4F862F809590818923042E3C
:1002B00001C0220F0A94EAF72623822B8083089537
:1002C00087FD8FE780938001482F50E081E891E01F
:1002D0000C94BB05FF920F931F93CF93DF938A017A
:1002E000F0907B01F61608F46F2DC62FD0E0AE011A
:1002F00060E871E00E94BB05C058DE4F8881F801BC
:1003000080838F2DDF91CF911F910F91FF900895E2
:10031000FF920F931F93CF93DF938C01F62EEA0188
:10032000209751F047E060E886E00E94410191E0AB
:10033000813009F090E0988340E050E06F2DC801D3
:10034000DF91CF911F910F91FF900C946A01DF9282
:10035000EF92FF920F931F93CF93DF938C01D62ED2
:100360007A01E901209751F047E060E886E00E94B9
:10037000410191E0813009F090E09883A7016D2D53
:10038000C801DF91CF911F910F91FF90EF90DF9007
:100390000C946A0180917B010895FA01282F30E0C6
:1003A000D901A60FB11DA038B10514F06FE7681B85
:1003B000462F50E0BF01C90180589E4F0C94BB05E9
:1003C000782FCA01272F30E0F901E60FF11DE03840
:1003D000F10514F06FE7671B462F50E0B901605834
:1003E0007E4F0C94BB059B01AC0184E0220F331FB0
:1003F000441F551F8A95D1F760E072E18AE790E0CB
:100400000E9472042150310937FF04C082E08093BA
:10041000C0003F773093C5002093C40088E98093E3
:10042000C10086E08093C2008091C1008F7D8093DF
:10043000C100109291021092900210921303109238
:1004400012030895AF92BF92CF92DF92EF92FF9284
:100450000F931F93CF93DF93EC01E62EAFB6F89482
:10046000F0909102D0909002FA948F2D8F77F82E11
:100470008D1569F08D1520F49D2D91959F7709C0FC
:10048000D81628F4982F9D199F77F12C02C0F12CD3
:1004900090E0BF2CB90EEB1408F4BE2CC92EE9165F
:1004A00008F4CE2CCC20A9F00C2D10E08D2D90E07E
:1004B000A801BE01805F9D4F0E94BB05C00FD11FE8
:1004C0008C2D8D0D8F7780939002EC188E2D8F7769
:1004D000E82EFE1408F4EF2CEE2049F04E2D50E0EB
:1004E000BE0180E192E00E94BB05E0929002809103
:1004F000C10080628093C100AFBE8B2DDF91CF9190
:100500001F910F91FF90EF90DF90CF90BF90AF9031
:100510000895209190022F5F2F7730919102231739
:1005200071F0E0919002F0E0E05FFD4F8083209356
:1005300090022091C10020622093C10008958FEFA6
:100540009FEF08950F931F93CF93DF93EC01FE016C
:100550000491002349F010E0C8010E94890280172D
:100560009107D1F72196F3CFDF91CF911F910F9192
:1005700008950F931F93CF93DF93EC01099100230C
:1005800041F010E0C8010E94890280179107D1F75D
:10059000F5CFDF91CF911F910F91089590911303A3
:1005A00080911203981771F0E0911303F0E0EE567A
:1005B000FD4F808190E0209113032F5F2F772093D0
:1005C000130308958FEF9FEF08958F929F92AF923C
:1005D000BF92CF92DF92EF92FF920F931F93CF9330
:1005E000DF931F92CDB7DEB78C01C62E8FB6F8947D
:1005F000B0901303D0901203BD1003C081E0898333
:1006000011C0DB1430F49B2D91959F7782E0898394
:100610000BC0BD1438F49D2D9B199F7783E089830F
:10062000D12C02C0D12C90E09D2C990EC91408F455
:100630009C2CA92EC91608F4AC2CAA20A9F0EA2CEF
:10064000F12C6B2D70E06E567D4FA701C8010E9402
:10065000BB050E0D1F1D8A2D8B0D8F778093130305
:10066000CA188C2D8F77C82EDC1408F4CD2CCC2022
:1006700049F04C2D50E062E972E0C8010E94BB05D0
:10068000C09213038FBE892D0F90DF91CF911F91E0
:100690000F91FF90EF90DF90CF90BF90AF909F9021
:1006A0008F9008951F920F920FB60F9211240BB6E0
:1006B0000F928F939F93EF93FF93909112038091EA
:1006C0001303981305C080910F028F5F80930F0270
:1006D000E0911203F0E08091C600EE56FD4F80835A
:1006E000809112038F5F8F7780931203FF91EF91B8
:1006F0009F918F910F900BBE0F900FBE0F901F9088
:1007000018951F920F920FB60F9211240BB60F92ED
:100710008F939F93EF93FF93E0919102F0E0E05F5E
:10072000FD4F80818093C600E0919102F0E0E05F90
:10073000FD4F83E28083809191028F5F8F7780935A
:1007400091029091900280919102981305C080913E
:10075000C1008F7D8093C100FF91EF919F918F9198
:100760000F900BBE0F900FBE0F901F901895CF9358
:10077000DF93CDB7DEB7CF5FD1090FB6F894DEBFF8
:100780000FBECDBF8FE19EE40197F1F700C00000DE
:10079000579A9A9A5F9AA29A84E00E9431015F98D0
:1007A000A2985F9AA29A809139018E7F8093390135
:1007B000809139018D7F8093390190E19A95F1F70D
:1007C0008091390181608093390168E082E00E9464
:1007D0003501EFE7F3E72CE0E150F0402040E1F78E
:1007E00000C0000040E06FE181E00E9441018830DC
:1007F00009F077C05F98A29A24E140E06FE10E947F
:100800004F0121E045E060E284E00E944F0166EB89
:1008100082E20E94350165E383E20E94350160E0D7
:1008200080E20E94350160E081E20E94350166E1CC
:1008300082E00E94350160E48EE00E9435017894E8
:100840005F9AA29860E076E980E090E00E94F30170
:1008500010920C0210920D025F9AA29A8E010F5F05
:100860001F4F0E94CE0288379105D9F70E94CE0211
:100870008F3FEFEF9E07D1F390930802809307021A
:10088000780180910702909108029701201B310B9B
:100890002817390754F40E94CE028F3FFFEF9F07BD
:1008A000D1F3F70181937F01ECCF21E045E060E2D5
:1008B0008EE20E944F01E0900702F0900802C7010B
:1008C0000E9494048093090290930A02FC01D801CB
:1008D000CD01801B910B8E159F051CF68D91819388
:1008E000F7CFFFCFA1E21A2EAA1BBB1BFD010DC043
:1008F000AA1FBB1FEE1FFF1FA217B307E407F507D0
:1009000020F0A21BB30BE40BF50B661F771F881FAB
:10091000991F1A9469F760957095809590959B0141
:10092000AC01BD01CF010895CF93DF9382309105D3
:1009300010F482E090E0E0911603F091170320E0BC
:1009400030E0A0E0B0E0309739F1408151814817A4
:100950005907B8F04817590771F4828193811097AD
:1009600029F013969C938E9312972CC090931703A3
:100970008093160327C02115310531F04217530724
:1009800018F0A901DB0101C0EF019A01BD01DF01EF
:100990000280F381E02DD7CF21153105F9F0281B16
:1009A000390B2430310580F48A819B8161157105F2
:1009B00021F0FB019383828304C0909317038093FB
:1009C0001603FE01329644C0FE01E20FF31F81932D
:1009D000919322503109398328833AC0209114031E
:1009E00030911503232B41F4209102023091030230
:1009F00030931503209314032091000230910102DB
:100A00002115310541F42DB73EB7409104025091B4
:100A10000502241B350BE0911403F0911503E21736
:100A2000F307A0F42E1B3F0B2817390778F0AC0111
:100A30004E5F5F4F2417350748F04E0F5F1F5093EE
:100A40001503409314038193919302C0E0E0F0E01A
:100A5000CF01DF91CF910895CF93DF93009709F4F1
:100A600087C0FC01329713821282C0911603D09185
:100A70001703209781F420813181280F391F80913D
:100A80001403909115038217930779F5F0931503DA
:100A9000E09314036DC0DE0120E030E0AE17BF0725
:100AA00050F412964D915C9113979D01411551059B
:100AB00009F1DA01F3CFB383A28340815181840F1E
:100AC000951F8A179B0771F48D919C911197840F44
:100AD000951F02969183808312968D919C91139716
:100AE000938382832115310529F4F0931703E09352
:100AF00016033EC0D9011396FC93EE9312974D91C5
:100B00005D91A40FB51FEA17FB0779F480819181ED
:100B1000840F951F0296D90111969C938E93828122
:100B2000938113969C938E931297E0E0F0E08A8174
:100B30009B81009719F0FE01EC01F9CFCE010296DE
:100B400028813981820F931F20911403309115035E
:100B50002817390769F4309729F410921703109277
:100B6000160302C013821282D0931503C09314039C
:100B7000DF91CF910895FB01DC0102C001900D923D
:0C0B800041505040D8F70895F894FFCF82
:060B8C0000001803200028
:00000001FF
