:100000000C94B8000C94D9000C94D9000C94D9002D
:100010000C94D9000C94D9000C94D9000C94D900FC
:100020000C94D9000C94D9000C94D9000C94D900EC
:100030000C94D9000C94D9000C94D9000C94D900DC
:100040000C94D9000C94D9000C94D9000C94D900CC
:100050000C94D9000C94D9000C94D9000C94D900BC
:100060000C94D9000C9498030C94C7030C94D900F9
:100070000C94D9000C94D9000C94D9000C94D9009C
:100080000C94D9000C94D9000C94D9000C94D9008C
:100090000C94D9000C94D9000C94D9000C94D9007C
:1000A0000C94D9000C94D9000C94D9000C94D9006C
:1000B0000C94D9000C94D9000C94D9000C94D9005C
:1000C0000C94D9000C94D9000C94D9000C94D9004C
:1000D0000C94D9000C94D9000C94D9000C94D9003C
:1000E0000C94D9000C94D9000C94D9000C94D9002C
:1000F0000C94D9000C94D9000C94D9000C94E20013
:100100000C94D9000C94D9000C94D9000C94D9000B
:100110000C94D9000C94D9000C94D9000C94D900FB
:100120000C94D9000C94D9000C94D9000C94D900EB
:100130000C94D9004E6577204368616E6E656C3A09
:100140002025640A0D004E65772053686F72742075
:10015000416464726573733A2025640A0D004E652C
:10016000772050414E2049443A2025640A0D000072
:1001700011241FBECFEFD1E8DEBFCDBF00E00CBF22
:1001800023E0A6E0B2E001C01D92A831B207E1F77A
:1001900012E0A0E0B2E0ECEEF2E100E00BBF02C042
:1001A00007900D92A630B107D9F70E94FD030C9479
:1001B00074090C9400000E9414038F3F2FEF9207E4
:1001C000D1F308951F920F920FB60F9211240BB620
:1001D0000F922F933F934F935F936F937F938F93E0
:1001E0009F93AF93BF93EF93FF9345E060E28EE25E
:1001F0000E9460018130E9F563E082E00E945401D1
:1002000069E182E00E9454018AE28A95F1F700C018
:1002100080913901826080933901809139018D7F0D
:10022000809339016091090270910A02809107025E
:100230000E947F0120E045E060E28EE20E946E01B4
:1002400045E060EE82E00E94600180930602109219
:100250000D0280910602882331F080910B028F5F9E
:1002600080930B020AC080910C028F5F80930C0276
:1002700004C066E182E00E945401FF91EF91BF91BA
:10028000AF919F918F917F916F915F914F913F912E
:100290002F910F900BBE0F900FBE0F901F901895CF
:1002A0005E98569A08950895E82FF0E0E05CFE4FBE
:1002B00060830895E82FF0E0E05CFE4F80810895B0
:1002C000E82FF0E0E05CFE4F80816823862F90E00D
:1002D00002C0959587954A95E2F70895E82FF0E0DA
:1002E000E05CFE4F862F809590818923042E01C00B
:1002F000220F0A94EAF72623822B8083089587FD34
:100300008FE780938001482F50E081E891E00C94C2
:100310009106FF920F931F93CF93DF938A01F09082
:100320007B01F61608F46F2DC62FD0E0AE0160E811
:1003300071E00E949106C058DE4F8881F8018083E9
:100340008F2DDF91CF911F910F91FF900895FF9214
:100350000F931F93CF93DF938C01F62EEA01209722
:1003600051F047E060E886E00E94600191E0813052
:1003700009F090E0988340E050E06F2DC801DF91D4
:10038000CF911F910F91FF900C948901DF92EF9212
:10039000FF920F931F93CF93DF938C01D62E7A0198
:1003A000E901209751F047E060E886E00E94600193
:1003B00091E0813009F090E09883A7016D2DC8018C
:1003C000DF91CF911F910F91FF90EF90DF900C94F0
:1003D000890180917B010895FA01282F30E0D9012D
:1003E000A60FB11DA038B10514F06FE7681B462FAA
:1003F00050E0BF01C90180589E4F0C949106782FA0
:10040000CA01272F30E0F901E60FF11DE038F105B0
:1004100014F06FE7671B462F50E0B90160587E4F1C
:100420000C9491060C94E802CF93DF93CDB7DEB71E
:10043000C058D1090FB6F894DEBF0FBECDBFFE0184
:10044000EA57FF4F419151919F016FE770E0CE0154
:1004500001960E949A06CE0101960E94FF02C058A2
:10046000DF4F0FB6F894DEBF0FBECDBFDF91CF9147
:1004700008959B01AC0184E0220F331F441F551FD8
:100480008A95D1F760E072E18AE790E00E94480522
:100490002150310937FF04C082E08093C0003F77CC
:1004A0003093C5002093C40088E98093C10086E0A2
:1004B0008093C2008091C1008F7D8093C100109213
:1004C0009102109290021092130310921203089559
:1004D000AF92BF92CF92DF92EF92FF920F931F9352
:1004E000CF93DF93EC01E62EAFB6F894F090910233
:1004F000D0909002FA948F2D8F77F82E8D1569F099
:100500008D1520F49D2D91959F7709C0D81628F45C
:10051000982F9D199F77F12C02C0F12C90E0BF2CF1
:10052000B90EEB1408F4BE2CC92EE91608F4CE2C33
:10053000CC20A9F00C2D10E08D2D90E0A801BE017B
:10054000805F9D4F0E949106C00FD11F8C2D8D0D95
:100550008F7780939002EC188E2D8F77E82EFE1403
:1005600008F4EF2CEE2049F04E2D50E0BE0180E162
:1005700092E00E949106E09290028091C100806218
:100580008093C100AFBE8B2DDF91CF911F910F9152
:10059000FF90EF90DF90CF90BF90AF9008952091A3
:1005A00090022F5F2F7730919102231771F0E09125
:1005B0009002F0E0E05FFD4F808320939002209155
:1005C000C10020622093C10008958FEF9FEF08952E
:1005D0000F931F93CF93DF93EC01FE01049100234F
:1005E00049F010E0C8010E94CF0280179107D1F7AF
:1005F0002196F3CFDF91CF911F910F9108950F9323
:100600001F93CF93DF93EC010991002341F010E099
:10061000C8010E94CF0280179107D1F7F5CFDF9173
:10062000CF911F910F910895909113038091120320
:10063000981771F0E0911303F0E0EE56FD4F8081C2
:1006400090E0209113032F5F2F77209313030895D9
:100650008FEF9FEF08958F929F92AF92BF92CF92AC
:10066000DF92EF92FF920F931F93CF93DF931F922E
:10067000CDB7DEB78C01C62E8FB6F894B0901303B9
:10068000D0901203BD1003C081E0898311C0DB1438
:1006900030F49B2D91959F7782E089830BC0BD1428
:1006A00038F49D2D9B199F7783E08983D12C02C05C
:1006B000D12C90E09D2C990EC91408F49C2CA92EE5
:1006C000C91608F4AC2CAA20A9F0EA2CF12C6B2D49
:1006D00070E06E567D4FA701C8010E9491060E0D75
:1006E0001F1D8A2D8B0D8F7780931303CA188C2DB5
:1006F0008F77C82EDC1408F4CD2CCC2049F04C2D7B
:1007000050E062E972E0C8010E949106C0921303B2
:100710008FBE892D0F90DF91CF911F910F91FF9088
:10072000EF90DF90CF90BF90AF909F908F90089503
:100730001F920F920FB60F9211240BB60F928F9348
:100740009F93EF93FF93909112038091130398135B
:1007500005C080910F028F5F80930F02E09112031A
:10076000F0E08091C600EE56FD4F80838091120329
:100770008F5F8F7780931203FF91EF919F918F91FD
:100780000F900BBE0F900FBE0F901F9018951F92E9
:100790000F920FB60F9211240BB60F928F939F9367
:1007A000EF93FF93E0919102F0E0E05FFD4F8081D5
:1007B0008093C600E0919102F0E0E05FFD4F83E29C
:1007C0008083809191028F5F8F77809391029091C7
:1007D000900280919102981305C08091C1008F7D95
:1007E0008093C100FF91EF919F918F910F900BBE6D
:1007F0000F900FBE0F901F901895CF93DF93CDB73A
:10080000DEB7CF5FD1090FB6F894DEBF0FBECDBF04
:100810008FE19EE40197F1F700C00000579A9A9A81
:100820005F9AA29A84E00E945001809139018E7FE4
:1008300080933901809139018D7F8093390190E156
:100840009A95F1F78091390181608093390168E0D0
:1008500082E00E945401EFE7F3E72CE0E150F04022
:100860002040E1F700C0000040E06FE181E00E941D
:100870006001883009F00BC124E140E06FE10E9483
:100880006E0121E045E060E284E00E946E0166EBCB
:1008900082E20E94540165E383E20E94540160E019
:1008A00080E20E94540160E081E20E94540166E10E
:1008B00082E00E94540160E48EE00E94540178942A
:1008C00060E076E980E090E00E94390210920C022C
:1008D00010920D028E010F5F1F4F34E3E32E31E0C3
:1008E000F32E46E4C42E41E0D42E5EE5A52E51E061
:1008F000B52E0E94140383379105D9F70E94DB00BF
:1009000085369105B1F70E94DB008336910589F7A2
:100910000E94DB008236910561F70E94DB0085367C
:10092000910539F70E94DB008536910511F70E9489
:10093000DB00909308028093070248018091070230
:10094000909108029401201B310B2817390734F4C9
:100950000E94DB00F40181934F01F0CF0E94DB0085
:100960004C010E94DB00AA2797FDA095BA2F892F82
:100970009A2FAB2FBB27A401662757FD6095762FD2
:1009800084239523A623B723863BF5E39F07A10580
:10099000B105B1F0BF93AF939F938F93BF92AF9286
:1009A0000E94140266EB82E20E94540165E383E236
:1009B0000E9454010F900F900F900F900F900F9086
:1009C0000E94DB004C010E94DB002C01662457FCD6
:1009D0006094762C452C562C672C7724C401AA27CA
:1009E00097FDA095BA2F482259226A227B224114F2
:1009F000510461047104B1F07F926F925F924F9243
:100A0000DF92CF920E94140260E080E20E945401C3
:100A100060E081E20E9454010F900F900F900F90C0
:100A20000F900F900E94DB004497A1F07F926F928D
:100A30005F924F92FF92EF920E94140224E140E0F5
:100A40006FE188E00E946E010F900F900F900F9061
:100A50000F900F9021E045E060E28EE20E946E016F
:100A60008090070290900802C4010E946A0580935A
:100A7000090290930A02FC01D801CD01801B910B61
:100A8000881599050CF035CF8D918193F6CFFFCF66
:100A9000A1E21A2EAA1BBB1BFD010DC0AA1FBB1F82
:100AA000EE1FFF1FA217B307E407F50720F0A21BF4
:100AB000B30BE40BF50B661F771F881F991F1A9461
:100AC00069F760957095809590959B01AC01BD018B
:100AD000CF010895CF93DF938230910510F482E027
:100AE00090E0E0911603F091170320E030E0A0E0E1
:100AF000B0E0309739F14081518148175907B8F07B
:100B00004817590771F482819381109729F0139641
:100B10009C938E9312972CC0909317038093160387
:100B200027C02115310531F04217530718F0A901EC
:100B3000DB0101C0EF019A01BD01DF010280F381F9
:100B4000E02DD7CF21153105F9F0281B390B2430C2
:100B5000310580F48A819B816115710521F0FB01CB
:100B60009383828304C09093170380931603FE013E
:100B7000329644C0FE01E20FF31F819391932250FD
:100B80003109398328833AC0209114033091150329
:100B9000232B41F42091020230910302309315037C
:100BA0002093140320910002309101022115310598
:100BB00041F42DB73EB74091040250910502241B29
:100BC000350BE0911403F0911503E217F307A0F43D
:100BD0002E1B3F0B2817390778F0AC014E5F5F4F93
:100BE0002417350748F04E0F5F1F509315034093AD
:100BF00014038193919302C0E0E0F0E0CF01DF9114
:100C0000CF910895CF93DF93009709F487C0FC013B
:100C1000329713821282C0911603D0911703209746
:100C200081F420813181280F391F80911403909124
:100C300015038217930779F5F0931503E0931403D6
:100C40006DC0DE0120E030E0AE17BF0750F4129611
:100C50004D915C9113979D014115510509F1DA0100
:100C6000F3CFB383A28340815181840F951F8A17EC
:100C70009B0771F48D919C911197840F951F02969B
:100C80009183808312968D919C9113979383828395
:100C90002115310529F4F0931703E09316033EC0A4
:100CA000D9011396FC93EE9312974D915D91A40F89
:100CB000B51FEA17FB0779F480819181840F951F96
:100CC0000296D90111969C938E93828193811396FB
:100CD0009C938E931297E0E0F0E08A819B810097CD
:100CE00019F0FE01EC01F9CFCE010296288139817D
:100CF000820F931F20911403309115032817390791
:100D000069F4309729F4109217031092160302C069
:100D100013821282D0931503C0931403DF91CF91F5
:100D20000895FB01DC0102C001900D92415050403A
:100D3000D8F708950F931F93CF93DF93CDB7DEB706
:100D40002E970FB6F894DEBF0FBECDBF8C01CA013F
:100D50004EE04C831A83098377FF02C060E070E89D
:100D6000615071097E836D83A901BC01CE0101969A
:100D70000E94D3064D815E8157FD0AC02F813885C0
:100D8000421753070CF49A01F801E20FF31F108287
:100D90002E960FB6F894DEBF0FBECDBFDF91CF9178
:100DA0001F910F9108952F923F924F925F926F92F1
:100DB0007F928F929F92AF92BF92CF92DF92EF92EB
:100DC000FF920F931F93CF93DF93CDB7DEB72C978E
:100DD0000FB6F894DEBF0FBECDBF7C016B018A0158
:100DE000FC0117821682838181FFBDC1CE0101966D
:100DF0004C01F7019381F60193FD859193FF819159
:100E00006F01882309F4ABC1853239F493FD8591D4
:100E100093FF81916F01853229F4B70190E00E9420
:100E2000E408E7CF512C312C20E02032A0F48B32A3
:100E300069F030F4803259F0833269F420612CC0BB
:100E40008D3239F0803339F4216026C0226024606D
:100E500023C0286021C027FD27C030ED380F3A306D
:100E600078F426FF06C0FAE05F9E300D1124532E61
:100E700013C08AE0389E300D1124332E20620CC03E
:100E80008E3221F426FD6BC1206406C08C3611F42D
:100E9000206802C0883641F4F60193FD859193FFE6
:100EA00081916F018111C1CF982F9F7D955493300F
:100EB00028F40C5F1F4FFFE3F9830DC0833631F038
:100EC000833771F0833509F05BC022C0F80180815F
:100ED00089830E5F1F4F44244394512C540115C045
:100EE0003801F2E06F0E711CF801A080B18026FF7E
:100EF00003C0652D70E002C06FEF7FEFC5012C8746
:100F00000E94D9082C0183012C852F77222E17C02F
:100F10003801F2E06F0E711CF801A080B18026FF4D
:100F200003C0652D70E002C06FEF7FEFC5012C8715
:100F30000E94CE082C012C852068222E830123FCE0
:100F40001BC0832D90E048165906B0F4B70180E22B
:100F500090E00E94E4083A94F4CFF50127FC8591D3
:100F600027FE81915F01B70190E00E94E4083110F3
:100F70003A94F1E04F1A51084114510471F7E5C059
:100F8000843611F0893639F5F80127FF07C06081F2
:100F90007181828193810C5F1F4F08C060817181D4
:100FA000882777FD8095982F0E5F1F4F2F76B22EE2
:100FB00097FF09C090958095709561957F4F8F4FF1
:100FC0009F4F2068B22E2AE030E0A4010E9416094B
:100FD000A82EA81844C0853729F42F7EB22E2AE007
:100FE00030E025C0F22FF97FBF2E8F36C1F018F404
:100FF000883579F0B4C0803719F0883721F0AFC058
:101000002F2F2061B22EB4FE0DC08B2D8460B82E20
:1010100009C024FF0AC09F2F9660B92E06C028E0A1
:1010200030E005C020E130E002C020E132E0F8010C
:10103000B7FE07C060817181828193810C5F1F4F71
:1010400006C06081718180E090E00E5F1F4FA401B7
:101050000E941609A82EA818FB2DFF77BF2EB6FEFA
:101060000BC02B2D2E7FA51450F4B4FE0AC0B2FC89
:1010700008C02B2D2E7E05C07A2C2B2D03C07A2C78
:1010800001C0752C24FF0DC0FE01EA0DF11D808109
:10109000803311F4297E09C022FF06C07394739433
:1010A00004C0822F867809F0739423FD13C020FFBB
:1010B00006C05A2C731418F4530C5718732C73145D
:1010C00068F4B70180E290E02C870E94E4087394F2
:1010D0002C85F5CF731410F4371801C0312C24FF80
:1010E00012C0B70180E390E02C870E94E4082C85B1
:1010F00022FF17C021FF03C088E590E002C088E707
:1011000090E0B7010CC0822F867859F021FD02C013
:1011100080E201C08BE227FD8DE2B70190E00E94E2
:10112000E408A51438F4B70180E390E00E94E408D5
:101130005A94F7CFAA94F401EA0DF11D8081B7010A
:1011400090E00E94E408A110F5CF332009F451CEBD
:10115000B70180E290E00E94E4083A94F6CFF701EC
:101160008681978102C08FEF9FEF2C960FB6F8947F
:10117000DEBF0FBECDBFDF91CF911F910F91FF90CA
:10118000EF90DF90CF90BF90AF909F908F907F9027
:101190006F905F904F903F902F900895FC010590C5
:1011A000615070400110D8F7809590958E0F9F1F69
:1011B0000895FC016150704001900110D8F78095AE
:1011C00090958E0F9F1F08950F931F93CF93DF93DA
:1011D000182F092FEB018B8181FD03C08FEF9FEF4B
:1011E00020C082FF10C04E815F812C813D8142175B
:1011F00053077CF4E881F9819F012F5F3F4F3983CA
:101200002883108306C0E885F985812F1995892BDD
:1012100029F72E813F812F5F3F4F3F832E83812F00
:10122000902FDF91CF911F910F910895FA01AA2776
:10123000283051F1203181F1E8946F936E7F6E5F19
:101240007F4F8F4F9F4FAF4FB1E03ED0B4E03CD0C7
:10125000670F781F891F9A1FA11D680F791F8A1FAA
:10126000911DA11D6A0F711D811D911DA11D20D011
:1012700009F468943F912AE0269F11243019305DCB
:101280003193DEF6CF010895462F4770405D4193BC
:10129000B3E00FD0C9F7F6CF462F4F70405D4A3309
:1012A00018F0495D31FD4052419302D0A9F7EACFD1
:1012B000B4E0A6959795879577956795BA95C9F700
:1012C00000976105710508959B01AC010A2E0694F3
:1012D0005795479537952795BA95C9F7620F731FAC
:0C12E000841F951FA01D0895F894FFCFF7
:0612EC00000018032000C1
:00000001FF
